{
  "_format": "hh-sol-artifact-1",
  "contractName": "MultiSigWallet",
  "sourceName": "contracts/MultiSig.sol",
  "abi": [
    {
      "anonymous": false,
      "inputs": [
        {
          "indexed": true,
          "internalType": "address",
          "name": "owner",
          "type": "address"
        },
        {
          "indexed": true,
          "internalType": "uint256",
          "name": "txId",
          "type": "uint256"
        }
      ],
      "name": "Approve",
      "type": "event"
    },
    {
      "anonymous": false,
      "inputs": [
        {
          "indexed": true,
          "internalType": "address",
          "name": "sender",
          "type": "address"
        },
        {
          "indexed": false,
          "internalType": "uint256",
          "name": "amount",
          "type": "uint256"
        }
      ],
      "name": "Deposit",
      "type": "event"
    },
    {
      "anonymous": false,
      "inputs": [
        {
          "indexed": true,
          "internalType": "uint256",
          "name": "txId",
          "type": "uint256"
        }
      ],
      "name": "Execute",
      "type": "event"
    },
    {
      "anonymous": false,
      "inputs": [
        {
          "indexed": true,
          "internalType": "address",
          "name": "owner",
          "type": "address"
        },
        {
          "indexed": true,
          "internalType": "uint256",
          "name": "txId",
          "type": "uint256"
        }
      ],
      "name": "Revoke",
      "type": "event"
    },
    {
      "anonymous": false,
      "inputs": [
        {
          "indexed": true,
          "internalType": "uint256",
          "name": "txId",
          "type": "uint256"
        }
      ],
      "name": "Submit",
      "type": "event"
    },
    {
      "inputs": [
        {
          "internalType": "uint256",
          "name": "_txId",
          "type": "uint256"
        }
      ],
      "name": "approve",
      "outputs": [],
      "stateMutability": "nonpayable",
      "type": "function"
    },
    {
      "inputs": [
        {
          "internalType": "uint256",
          "name": "",
          "type": "uint256"
        },
        {
          "internalType": "address",
          "name": "",
          "type": "address"
        }
      ],
      "name": "approved",
      "outputs": [
        {
          "internalType": "bool",
          "name": "",
          "type": "bool"
        }
      ],
      "stateMutability": "view",
      "type": "function"
    },
    {
      "inputs": [
        {
          "internalType": "uint256",
          "name": "_txId",
          "type": "uint256"
        }
      ],
      "name": "execute",
      "outputs": [],
      "stateMutability": "nonpayable",
      "type": "function"
    },
    {
      "inputs": [
        {
          "internalType": "address",
          "name": "",
          "type": "address"
        }
      ],
      "name": "isOwner",
      "outputs": [
        {
          "internalType": "bool",
          "name": "",
          "type": "bool"
        }
      ],
      "stateMutability": "view",
      "type": "function"
    },
    {
      "inputs": [
        {
          "internalType": "uint256",
          "name": "",
          "type": "uint256"
        }
      ],
      "name": "owners",
      "outputs": [
        {
          "internalType": "address",
          "name": "",
          "type": "address"
        }
      ],
      "stateMutability": "view",
      "type": "function"
    },
    {
      "inputs": [],
      "name": "required",
      "outputs": [
        {
          "internalType": "uint256",
          "name": "",
          "type": "uint256"
        }
      ],
      "stateMutability": "view",
      "type": "function"
    },
    {
      "inputs": [
        {
          "internalType": "uint256",
          "name": "_txId",
          "type": "uint256"
        }
      ],
      "name": "revoke",
      "outputs": [],
      "stateMutability": "nonpayable",
      "type": "function"
    },
    {
      "inputs": [
        {
          "internalType": "address[]",
          "name": "_owners",
          "type": "address[]"
        },
        {
          "internalType": "uint256",
          "name": "_required",
          "type": "uint256"
        }
      ],
      "name": "setOwners",
      "outputs": [],
      "stateMutability": "nonpayable",
      "type": "function"
    },
    {
      "inputs": [
        {
          "internalType": "address",
          "name": "_to",
          "type": "address"
        },
        {
          "internalType": "uint256",
          "name": "_value",
          "type": "uint256"
        }
      ],
      "name": "submit",
      "outputs": [],
      "stateMutability": "nonpayable",
      "type": "function"
    },
    {
      "inputs": [
        {
          "internalType": "uint256",
          "name": "",
          "type": "uint256"
        }
      ],
      "name": "txs",
      "outputs": [
        {
          "internalType": "address",
          "name": "to",
          "type": "address"
        },
        {
          "internalType": "uint256",
          "name": "value",
          "type": "uint256"
        },
        {
          "internalType": "bool",
          "name": "executed",
          "type": "bool"
        }
      ],
      "stateMutability": "view",
      "type": "function"
    },
    {
      "stateMutability": "payable",
      "type": "receive"
    }
  ],
  "bytecode": "0x608060405234801561001057600080fd5b50611aa3806100206000396000f3fe6080604052600436106100955760003560e01c8063b759f95411610059578063b759f954146101f8578063dc8452cd14610221578063df5cb5a01461024c578063f5715d5614610275578063fe0d94c1146102b4576100ea565b8063025e7c27146100ef578063203dd6661461012c57806320c5429b146101555780632f54bf6e1461017e5780638253951a146101bb576100ea565b366100ea573373ffffffffffffffffffffffffffffffffffffffff167fe1fffcc4923d04b559f4d29a8bfc6cda04eb5b0d3c460751c2402c5c5cc9109c346040516100e09190611085565b60405180910390a2005b600080fd5b3480156100fb57600080fd5b50610116600480360381019061011191906110e0565b6102dd565b604051610123919061114e565b60405180910390f35b34801561013857600080fd5b50610153600480360381019061014e9190611195565b61031c565b005b34801561016157600080fd5b5061017c600480360381019061017791906110e0565b6104bc565b005b34801561018a57600080fd5b506101a560048036038101906101a091906111d5565b610753565b6040516101b2919061121d565b60405180910390f35b3480156101c757600080fd5b506101e260048036038101906101dd9190611238565b610773565b6040516101ef919061121d565b60405180910390f35b34801561020457600080fd5b5061021f600480360381019061021a91906110e0565b6107a2565b005b34801561022d57600080fd5b50610236610a3c565b6040516102439190611085565b60405180910390f35b34801561025857600080fd5b50610273600480360381019061026e91906113d1565b610a42565b005b34801561028157600080fd5b5061029c600480360381019061029791906110e0565b610cd7565b6040516102ab9392919061142d565b60405180910390f35b3480156102c057600080fd5b506102db60048036038101906102d691906110e0565b610d3e565b005b600081815481106102ed57600080fd5b906000526020600020016000915054906101000a900473ffffffffffffffffffffffffffffffffffffffff1681565b600160003373ffffffffffffffffffffffffffffffffffffffff1673ffffffffffffffffffffffffffffffffffffffff16815260200190815260200160002060009054906101000a900460ff166103a8576040517f08c379a000000000000000000000000000000000000000000000000000000000815260040161039f906114c1565b60405180910390fd5b600360405180606001604052808473ffffffffffffffffffffffffffffffffffffffff16815260200183815260200160001515815250908060018154018082558091505060019003906000526020600020906003020160009091909190915060008201518160000160006101000a81548173ffffffffffffffffffffffffffffffffffffffff021916908373ffffffffffffffffffffffffffffffffffffffff1602179055506020820151816001015560408201518160020160006101000a81548160ff0219169083151502179055505050600160038054905061048c9190611510565b7f08324b3d745b914e3abd4ffbfead91e3b78391a98c173202129215ab933adfbe60405160405180910390a25050565b600160003373ffffffffffffffffffffffffffffffffffffffff1673ffffffffffffffffffffffffffffffffffffffff16815260200190815260200160002060009054906101000a900460ff16610548576040517f08c379a000000000000000000000000000000000000000000000000000000000815260040161053f906114c1565b60405180910390fd5b806003805490508110610590576040517f08c379a000000000000000000000000000000000000000000000000000000000815260040161058790611590565b60405180910390fd5b81600381815481106105a5576105a46115b0565b5b906000526020600020906003020160020160009054906101000a900460ff1615610604576040517f08c379a00000000000000000000000000000000000000000000000000000000081526004016105fb9061162b565b60405180910390fd5b6004600084815260200190815260200160002060003373ffffffffffffffffffffffffffffffffffffffff1673ffffffffffffffffffffffffffffffffffffffff16815260200190815260200160002060009054906101000a900460ff166106a1576040517f08c379a000000000000000000000000000000000000000000000000000000000815260040161069890611697565b60405180910390fd5b60006004600085815260200190815260200160002060003373ffffffffffffffffffffffffffffffffffffffff1673ffffffffffffffffffffffffffffffffffffffff16815260200190815260200160002060006101000a81548160ff021916908315150217905550823373ffffffffffffffffffffffffffffffffffffffff167fec9ab91322523c899ede7830ec9bfc992b5981cdcc27b91162fb23de5791117b60405160405180910390a3505050565b60016020528060005260406000206000915054906101000a900460ff1681565b60046020528160005260406000206020528060005260406000206000915091509054906101000a900460ff1681565b600160003373ffffffffffffffffffffffffffffffffffffffff1673ffffffffffffffffffffffffffffffffffffffff16815260200190815260200160002060009054906101000a900460ff1661082e576040517f08c379a0000000000000000000000000000000000000000000000000000000008152600401610825906114c1565b60405180910390fd5b806003805490508110610876576040517f08c379a000000000000000000000000000000000000000000000000000000000815260040161086d90611590565b60405180910390fd5b816004600082815260200190815260200160002060003373ffffffffffffffffffffffffffffffffffffffff1673ffffffffffffffffffffffffffffffffffffffff16815260200190815260200160002060009054906101000a900460ff1615610915576040517f08c379a000000000000000000000000000000000000000000000000000000000815260040161090c90611703565b60405180910390fd5b826003818154811061092a576109296115b0565b5b906000526020600020906003020160020160009054906101000a900460ff1615610989576040517f08c379a00000000000000000000000000000000000000000000000000000000081526004016109809061162b565b60405180910390fd5b60016004600086815260200190815260200160002060003373ffffffffffffffffffffffffffffffffffffffff1673ffffffffffffffffffffffffffffffffffffffff16815260200190815260200160002060006101000a81548160ff021916908315150217905550833373ffffffffffffffffffffffffffffffffffffffff167f90ec57f18fa7b15c6b8d5e4d1deb90796c74b2ff23d4d0cecad0cb42a96b312860405160405180910390a350505050565b60025481565b6000825111610a86576040517f08c379a0000000000000000000000000000000000000000000000000000000008152600401610a7d9061176f565b60405180910390fd5b600081118015610a97575081518111155b610ad6576040517f08c379a0000000000000000000000000000000000000000000000000000000008152600401610acd906117db565b60405180910390fd5b60005b8251811015610ccb576000838281518110610af757610af66115b0565b5b60200260200101519050600073ffffffffffffffffffffffffffffffffffffffff168173ffffffffffffffffffffffffffffffffffffffff1603610b70576040517f08c379a0000000000000000000000000000000000000000000000000000000008152600401610b6790611847565b60405180910390fd5b600160008273ffffffffffffffffffffffffffffffffffffffff1673ffffffffffffffffffffffffffffffffffffffff16815260200190815260200160002060009054906101000a900460ff1615610bfd576040517f08c379a0000000000000000000000000000000000000000000000000000000008152600401610bf4906118b3565b60405180910390fd5b60018060008373ffffffffffffffffffffffffffffffffffffffff1673ffffffffffffffffffffffffffffffffffffffff16815260200190815260200160002060006101000a81548160ff0219169083151502179055506000819080600181540180825580915050600190039060005260206000200160009091909190916101000a81548173ffffffffffffffffffffffffffffffffffffffff021916908373ffffffffffffffffffffffffffffffffffffffff160217905550508080610cc3906118d3565b915050610ad9565b50806002819055505050565b60038181548110610ce757600080fd5b90600052602060002090600302016000915090508060000160009054906101000a900473ffffffffffffffffffffffffffffffffffffffff16908060010154908060020160009054906101000a900460ff16905083565b806003805490508110610d86576040517f08c379a0000000000000000000000000000000000000000000000000000000008152600401610d7d90611590565b60405180910390fd5b8160038181548110610d9b57610d9a6115b0565b5b906000526020600020906003020160020160009054906101000a900460ff1615610dfa576040517f08c379a0000000000000000000000000000000000000000000000000000000008152600401610df19061162b565b60405180910390fd5b600254610e0684610f92565b1015610e47576040517f08c379a0000000000000000000000000000000000000000000000000000000008152600401610e3e90611967565b60405180910390fd5b600060038481548110610e5d57610e5c6115b0565b5b9060005260206000209060030201905060018160020160006101000a81548160ff02191690831515021790555060008160000160009054906101000a900473ffffffffffffffffffffffffffffffffffffffff1673ffffffffffffffffffffffffffffffffffffffff168260010154604051610ed8906119b8565b60006040518083038185875af1925050503d8060008114610f15576040519150601f19603f3d011682016040523d82523d6000602084013e610f1a565b606091505b5050905080610f5e576040517f08c379a0000000000000000000000000000000000000000000000000000000008152600401610f5590611a19565b60405180910390fd5b847fddb556f1d2c1ec821e910b019d3685b229db152a0ecd517ca7e24b8bd713928960405160405180910390a25050505050565b6000805b60008054905081101561106657600460008481526020019081526020016000206000808381548110610fcb57610fca6115b0565b5b9060005260206000200160009054906101000a900473ffffffffffffffffffffffffffffffffffffffff1673ffffffffffffffffffffffffffffffffffffffff1673ffffffffffffffffffffffffffffffffffffffff16815260200190815260200160002060009054906101000a900460ff1615611053576001826110509190611a39565b91505b808061105e906118d3565b915050610f96565b50919050565b6000819050919050565b61107f8161106c565b82525050565b600060208201905061109a6000830184611076565b92915050565b6000604051905090565b600080fd5b600080fd5b6110bd8161106c565b81146110c857600080fd5b50565b6000813590506110da816110b4565b92915050565b6000602082840312156110f6576110f56110aa565b5b6000611104848285016110cb565b91505092915050565b600073ffffffffffffffffffffffffffffffffffffffff82169050919050565b60006111388261110d565b9050919050565b6111488161112d565b82525050565b6000602082019050611163600083018461113f565b92915050565b6111728161112d565b811461117d57600080fd5b50565b60008135905061118f81611169565b92915050565b600080604083850312156111ac576111ab6110aa565b5b60006111ba85828601611180565b92505060206111cb858286016110cb565b9150509250929050565b6000602082840312156111eb576111ea6110aa565b5b60006111f984828501611180565b91505092915050565b60008115159050919050565b61121781611202565b82525050565b6000602082019050611232600083018461120e565b92915050565b6000806040838503121561124f5761124e6110aa565b5b600061125d858286016110cb565b925050602061126e85828601611180565b9150509250929050565b600080fd5b6000601f19601f8301169050919050565b7f4e487b7100000000000000000000000000000000000000000000000000000000600052604160045260246000fd5b6112c68261127d565b810181811067ffffffffffffffff821117156112e5576112e461128e565b5b80604052505050565b60006112f86110a0565b905061130482826112bd565b919050565b600067ffffffffffffffff8211156113245761132361128e565b5b602082029050602081019050919050565b600080fd5b600061134d61134884611309565b6112ee565b905080838252602082019050602084028301858111156113705761136f611335565b5b835b8181101561139957806113858882611180565b845260208401935050602081019050611372565b5050509392505050565b600082601f8301126113b8576113b7611278565b5b81356113c884826020860161133a565b91505092915050565b600080604083850312156113e8576113e76110aa565b5b600083013567ffffffffffffffff811115611406576114056110af565b5b611412858286016113a3565b9250506020611423858286016110cb565b9150509250929050565b6000606082019050611442600083018661113f565b61144f6020830185611076565b61145c604083018461120e565b949350505050565b600082825260208201905092915050565b7f6e6f74206f776e65720000000000000000000000000000000000000000000000600082015250565b60006114ab600983611464565b91506114b682611475565b602082019050919050565b600060208201905081810360008301526114da8161149e565b9050919050565b7f4e487b7100000000000000000000000000000000000000000000000000000000600052601160045260246000fd5b600061151b8261106c565b91506115268361106c565b925082820390508181111561153e5761153d6114e1565b5b92915050565b7f747820646f6573206e6f74206578697374730000000000000000000000000000600082015250565b600061157a601283611464565b915061158582611544565b602082019050919050565b600060208201905081810360008301526115a98161156d565b9050919050565b7f4e487b7100000000000000000000000000000000000000000000000000000000600052603260045260246000fd5b7f747820616c726561647920657865637574656400000000000000000000000000600082015250565b6000611615601383611464565b9150611620826115df565b602082019050919050565b6000602082019050818103600083015261164481611608565b9050919050565b7f7478206e6f7420617070726f7665640000000000000000000000000000000000600082015250565b6000611681600f83611464565b915061168c8261164b565b602082019050919050565b600060208201905081810360008301526116b081611674565b9050919050565b7f747820616c726561647920617070726f76656400000000000000000000000000600082015250565b60006116ed601383611464565b91506116f8826116b7565b602082019050919050565b6000602082019050818103600083015261171c816116e0565b9050919050565b7f6f776e6572732072657175697265640000000000000000000000000000000000600082015250565b6000611759600f83611464565b915061176482611723565b602082019050919050565b600060208201905081810360008301526117888161174c565b9050919050565b7f696e76616c6964207265717569726564206e756d206f66206f776e6572730000600082015250565b60006117c5601e83611464565b91506117d08261178f565b602082019050919050565b600060208201905081810360008301526117f4816117b8565b9050919050565b7f696e76616c6964206f776e657200000000000000000000000000000000000000600082015250565b6000611831600d83611464565b915061183c826117fb565b602082019050919050565b6000602082019050818103600083015261186081611824565b9050919050565b7f6f776e6572206973206e6f7420756e6971756500000000000000000000000000600082015250565b600061189d601383611464565b91506118a882611867565b602082019050919050565b600060208201905081810360008301526118cc81611890565b9050919050565b60006118de8261106c565b91507fffffffffffffffffffffffffffffffffffffffffffffffffffffffffffffffff82036119105761190f6114e1565b5b600182019050919050565b7f617070726f76616c73203c207265717569726564000000000000000000000000600082015250565b6000611951601483611464565b915061195c8261191b565b602082019050919050565b6000602082019050818103600083015261198081611944565b9050919050565b600081905092915050565b50565b60006119a2600083611987565b91506119ad82611992565b600082019050919050565b60006119c382611995565b9150819050919050565b7f207478206661696c656400000000000000000000000000000000000000000000600082015250565b6000611a03600a83611464565b9150611a0e826119cd565b602082019050919050565b60006020820190508181036000830152611a32816119f6565b9050919050565b6000611a448261106c565b9150611a4f8361106c565b9250828201905080821115611a6757611a666114e1565b5b9291505056fea2646970667358221220c11ce9dcac96563d31793978c7e84ee3a1e697770755c6ff15d3ab1b70e7cc3064736f6c63430008110033",
  "linkReferences": {},
  "deployedLinkReferences": {}
}