{
  "_format": "hh-sol-artifact-1",
  "contractName": "MultiSigWallet",
  "sourceName": "contracts/MultiSig.sol",
  "abi": [
    {
      "anonymous": false,
      "inputs": [
        {
          "indexed": true,
          "internalType": "address",
          "name": "owner",
          "type": "address"
        },
        {
          "indexed": true,
          "internalType": "uint256",
          "name": "txId",
          "type": "uint256"
        }
      ],
      "name": "Approve",
      "type": "event"
    },
    {
      "anonymous": false,
      "inputs": [
        {
          "indexed": true,
          "internalType": "address",
          "name": "sender",
          "type": "address"
        },
        {
          "indexed": false,
          "internalType": "uint256",
          "name": "amount",
          "type": "uint256"
        }
      ],
      "name": "Deposit",
      "type": "event"
    },
    {
      "anonymous": false,
      "inputs": [
        {
          "indexed": true,
          "internalType": "uint256",
          "name": "txId",
          "type": "uint256"
        }
      ],
      "name": "Execute",
      "type": "event"
    },
    {
      "anonymous": false,
      "inputs": [
        {
          "indexed": true,
          "internalType": "address",
          "name": "owner",
          "type": "address"
        },
        {
          "indexed": true,
          "internalType": "uint256",
          "name": "txId",
          "type": "uint256"
        }
      ],
      "name": "Revoke",
      "type": "event"
    },
    {
      "anonymous": false,
      "inputs": [
        {
          "indexed": true,
          "internalType": "uint256",
          "name": "txId",
          "type": "uint256"
        }
      ],
      "name": "Submit",
      "type": "event"
    },
    {
      "inputs": [
        {
          "internalType": "uint256",
          "name": "_txId",
          "type": "uint256"
        }
      ],
      "name": "_getApprovalCount",
      "outputs": [
        {
          "internalType": "uint256",
          "name": "count",
          "type": "uint256"
        }
      ],
      "stateMutability": "view",
      "type": "function"
    },
    {
      "inputs": [
        {
          "internalType": "uint256",
          "name": "_txId",
          "type": "uint256"
        }
      ],
      "name": "approve",
      "outputs": [],
      "stateMutability": "nonpayable",
      "type": "function"
    },
    {
      "inputs": [
        {
          "internalType": "uint256",
          "name": "",
          "type": "uint256"
        },
        {
          "internalType": "address",
          "name": "",
          "type": "address"
        }
      ],
      "name": "approved",
      "outputs": [
        {
          "internalType": "bool",
          "name": "",
          "type": "bool"
        }
      ],
      "stateMutability": "view",
      "type": "function"
    },
    {
      "inputs": [],
      "name": "deposit",
      "outputs": [],
      "stateMutability": "payable",
      "type": "function"
    },
    {
      "inputs": [
        {
          "internalType": "uint256",
          "name": "_txId",
          "type": "uint256"
        }
      ],
      "name": "execute",
      "outputs": [],
      "stateMutability": "nonpayable",
      "type": "function"
    },
    {
      "inputs": [
        {
          "internalType": "address",
          "name": "",
          "type": "address"
        }
      ],
      "name": "isOwner",
      "outputs": [
        {
          "internalType": "bool",
          "name": "",
          "type": "bool"
        }
      ],
      "stateMutability": "view",
      "type": "function"
    },
    {
      "inputs": [
        {
          "internalType": "uint256",
          "name": "",
          "type": "uint256"
        }
      ],
      "name": "owners",
      "outputs": [
        {
          "internalType": "address",
          "name": "",
          "type": "address"
        }
      ],
      "stateMutability": "view",
      "type": "function"
    },
    {
      "inputs": [],
      "name": "required",
      "outputs": [
        {
          "internalType": "uint256",
          "name": "",
          "type": "uint256"
        }
      ],
      "stateMutability": "view",
      "type": "function"
    },
    {
      "inputs": [
        {
          "internalType": "uint256",
          "name": "_txId",
          "type": "uint256"
        }
      ],
      "name": "revoke",
      "outputs": [],
      "stateMutability": "nonpayable",
      "type": "function"
    },
    {
      "inputs": [
        {
          "internalType": "address[]",
          "name": "_owners",
          "type": "address[]"
        },
        {
          "internalType": "uint256",
          "name": "_required",
          "type": "uint256"
        }
      ],
      "name": "setOwners",
      "outputs": [],
      "stateMutability": "nonpayable",
      "type": "function"
    },
    {
      "inputs": [
        {
          "internalType": "address",
          "name": "_to",
          "type": "address"
        },
        {
          "internalType": "uint256",
          "name": "_value",
          "type": "uint256"
        }
      ],
      "name": "submit",
      "outputs": [],
      "stateMutability": "nonpayable",
      "type": "function"
    },
    {
      "inputs": [
        {
          "internalType": "uint256",
          "name": "",
          "type": "uint256"
        }
      ],
      "name": "txs",
      "outputs": [
        {
          "internalType": "address",
          "name": "to",
          "type": "address"
        },
        {
          "internalType": "uint256",
          "name": "value",
          "type": "uint256"
        },
        {
          "internalType": "bool",
          "name": "executed",
          "type": "bool"
        }
      ],
      "stateMutability": "view",
      "type": "function"
    }
  ],
  "bytecode": "0x608060405234801561001057600080fd5b50611af7806100206000396000f3fe6080604052600436106100a75760003560e01c8063d0e30db011610064578063d0e30db0146101de578063dc8452cd146101e8578063df5cb5a014610213578063eda8b7cd1461023c578063f5715d5614610279578063fe0d94c1146102b8576100a7565b8063025e7c27146100ac578063203dd666146100e957806320c5429b146101125780632f54bf6e1461013b5780638253951a14610178578063b759f954146101b5575b600080fd5b3480156100b857600080fd5b506100d360048036038101906100ce919061110a565b6102e1565b6040516100e09190611178565b60405180910390f35b3480156100f557600080fd5b50610110600480360381019061010b91906111bf565b610320565b005b34801561011e57600080fd5b506101396004803603810190610134919061110a565b6104c0565b005b34801561014757600080fd5b50610162600480360381019061015d91906111ff565b610757565b60405161016f9190611247565b60405180910390f35b34801561018457600080fd5b5061019f600480360381019061019a9190611262565b610777565b6040516101ac9190611247565b60405180910390f35b3480156101c157600080fd5b506101dc60048036038101906101d7919061110a565b6107a6565b005b6101e6610a40565b005b3480156101f457600080fd5b506101fd610a90565b60405161020a91906112b1565b60405180910390f35b34801561021f57600080fd5b5061023a60048036038101906102359190611425565b610a96565b005b34801561024857600080fd5b50610263600480360381019061025e919061110a565b610d2b565b60405161027091906112b1565b60405180910390f35b34801561028557600080fd5b506102a0600480360381019061029b919061110a565b610e05565b6040516102af93929190611481565b60405180910390f35b3480156102c457600080fd5b506102df60048036038101906102da919061110a565b610e6c565b005b600081815481106102f157600080fd5b906000526020600020016000915054906101000a900473ffffffffffffffffffffffffffffffffffffffff1681565b600160003373ffffffffffffffffffffffffffffffffffffffff1673ffffffffffffffffffffffffffffffffffffffff16815260200190815260200160002060009054906101000a900460ff166103ac576040517f08c379a00000000000000000000000000000000000000000000000000000000081526004016103a390611515565b60405180910390fd5b600360405180606001604052808473ffffffffffffffffffffffffffffffffffffffff16815260200183815260200160001515815250908060018154018082558091505060019003906000526020600020906003020160009091909190915060008201518160000160006101000a81548173ffffffffffffffffffffffffffffffffffffffff021916908373ffffffffffffffffffffffffffffffffffffffff1602179055506020820151816001015560408201518160020160006101000a81548160ff021916908315150217905550505060016003805490506104909190611564565b7f08324b3d745b914e3abd4ffbfead91e3b78391a98c173202129215ab933adfbe60405160405180910390a25050565b600160003373ffffffffffffffffffffffffffffffffffffffff1673ffffffffffffffffffffffffffffffffffffffff16815260200190815260200160002060009054906101000a900460ff1661054c576040517f08c379a000000000000000000000000000000000000000000000000000000000815260040161054390611515565b60405180910390fd5b806003805490508110610594576040517f08c379a000000000000000000000000000000000000000000000000000000000815260040161058b906115e4565b60405180910390fd5b81600381815481106105a9576105a8611604565b5b906000526020600020906003020160020160009054906101000a900460ff1615610608576040517f08c379a00000000000000000000000000000000000000000000000000000000081526004016105ff9061167f565b60405180910390fd5b6004600084815260200190815260200160002060003373ffffffffffffffffffffffffffffffffffffffff1673ffffffffffffffffffffffffffffffffffffffff16815260200190815260200160002060009054906101000a900460ff166106a5576040517f08c379a000000000000000000000000000000000000000000000000000000000815260040161069c906116eb565b60405180910390fd5b60006004600085815260200190815260200160002060003373ffffffffffffffffffffffffffffffffffffffff1673ffffffffffffffffffffffffffffffffffffffff16815260200190815260200160002060006101000a81548160ff021916908315150217905550823373ffffffffffffffffffffffffffffffffffffffff167fec9ab91322523c899ede7830ec9bfc992b5981cdcc27b91162fb23de5791117b60405160405180910390a3505050565b60016020528060005260406000206000915054906101000a900460ff1681565b60046020528160005260406000206020528060005260406000206000915091509054906101000a900460ff1681565b600160003373ffffffffffffffffffffffffffffffffffffffff1673ffffffffffffffffffffffffffffffffffffffff16815260200190815260200160002060009054906101000a900460ff16610832576040517f08c379a000000000000000000000000000000000000000000000000000000000815260040161082990611515565b60405180910390fd5b80600380549050811061087a576040517f08c379a0000000000000000000000000000000000000000000000000000000008152600401610871906115e4565b60405180910390fd5b816004600082815260200190815260200160002060003373ffffffffffffffffffffffffffffffffffffffff1673ffffffffffffffffffffffffffffffffffffffff16815260200190815260200160002060009054906101000a900460ff1615610919576040517f08c379a000000000000000000000000000000000000000000000000000000000815260040161091090611757565b60405180910390fd5b826003818154811061092e5761092d611604565b5b906000526020600020906003020160020160009054906101000a900460ff161561098d576040517f08c379a00000000000000000000000000000000000000000000000000000000081526004016109849061167f565b60405180910390fd5b60016004600086815260200190815260200160002060003373ffffffffffffffffffffffffffffffffffffffff1673ffffffffffffffffffffffffffffffffffffffff16815260200190815260200160002060006101000a81548160ff021916908315150217905550833373ffffffffffffffffffffffffffffffffffffffff167f90ec57f18fa7b15c6b8d5e4d1deb90796c74b2ff23d4d0cecad0cb42a96b312860405160405180910390a350505050565b3373ffffffffffffffffffffffffffffffffffffffff167fe1fffcc4923d04b559f4d29a8bfc6cda04eb5b0d3c460751c2402c5c5cc9109c34604051610a8691906112b1565b60405180910390a2565b60025481565b6000825111610ada576040517f08c379a0000000000000000000000000000000000000000000000000000000008152600401610ad1906117c3565b60405180910390fd5b600081118015610aeb575081518111155b610b2a576040517f08c379a0000000000000000000000000000000000000000000000000000000008152600401610b219061182f565b60405180910390fd5b60005b8251811015610d1f576000838281518110610b4b57610b4a611604565b5b60200260200101519050600073ffffffffffffffffffffffffffffffffffffffff168173ffffffffffffffffffffffffffffffffffffffff1603610bc4576040517f08c379a0000000000000000000000000000000000000000000000000000000008152600401610bbb9061189b565b60405180910390fd5b600160008273ffffffffffffffffffffffffffffffffffffffff1673ffffffffffffffffffffffffffffffffffffffff16815260200190815260200160002060009054906101000a900460ff1615610c51576040517f08c379a0000000000000000000000000000000000000000000000000000000008152600401610c4890611907565b60405180910390fd5b60018060008373ffffffffffffffffffffffffffffffffffffffff1673ffffffffffffffffffffffffffffffffffffffff16815260200190815260200160002060006101000a81548160ff0219169083151502179055506000819080600181540180825580915050600190039060005260206000200160009091909190916101000a81548173ffffffffffffffffffffffffffffffffffffffff021916908373ffffffffffffffffffffffffffffffffffffffff160217905550508080610d1790611927565b915050610b2d565b50806002819055505050565b6000805b600080549050811015610dff57600460008481526020019081526020016000206000808381548110610d6457610d63611604565b5b9060005260206000200160009054906101000a900473ffffffffffffffffffffffffffffffffffffffff1673ffffffffffffffffffffffffffffffffffffffff1673ffffffffffffffffffffffffffffffffffffffff16815260200190815260200160002060009054906101000a900460ff1615610dec57600182610de9919061196f565b91505b8080610df790611927565b915050610d2f565b50919050565b60038181548110610e1557600080fd5b90600052602060002090600302016000915090508060000160009054906101000a900473ffffffffffffffffffffffffffffffffffffffff16908060010154908060020160009054906101000a900460ff16905083565b806003805490508110610eb4576040517f08c379a0000000000000000000000000000000000000000000000000000000008152600401610eab906115e4565b60405180910390fd5b8160038181548110610ec957610ec8611604565b5b906000526020600020906003020160020160009054906101000a900460ff1615610f28576040517f08c379a0000000000000000000000000000000000000000000000000000000008152600401610f1f9061167f565b60405180910390fd5b600254610f3484610d2b565b1015610f75576040517f08c379a0000000000000000000000000000000000000000000000000000000008152600401610f6c906119ef565b60405180910390fd5b600060038481548110610f8b57610f8a611604565b5b9060005260206000209060030201905060018160020160006101000a81548160ff02191690831515021790555060008160000160009054906101000a900473ffffffffffffffffffffffffffffffffffffffff1673ffffffffffffffffffffffffffffffffffffffff16826001015460405161100690611a40565b60006040518083038185875af1925050503d8060008114611043576040519150601f19603f3d011682016040523d82523d6000602084013e611048565b606091505b505090508061108c576040517f08c379a000000000000000000000000000000000000000000000000000000000815260040161108390611aa1565b60405180910390fd5b847fddb556f1d2c1ec821e910b019d3685b229db152a0ecd517ca7e24b8bd713928960405160405180910390a25050505050565b6000604051905090565b600080fd5b600080fd5b6000819050919050565b6110e7816110d4565b81146110f257600080fd5b50565b600081359050611104816110de565b92915050565b6000602082840312156111205761111f6110ca565b5b600061112e848285016110f5565b91505092915050565b600073ffffffffffffffffffffffffffffffffffffffff82169050919050565b600061116282611137565b9050919050565b61117281611157565b82525050565b600060208201905061118d6000830184611169565b92915050565b61119c81611157565b81146111a757600080fd5b50565b6000813590506111b981611193565b92915050565b600080604083850312156111d6576111d56110ca565b5b60006111e4858286016111aa565b92505060206111f5858286016110f5565b9150509250929050565b600060208284031215611215576112146110ca565b5b6000611223848285016111aa565b91505092915050565b60008115159050919050565b6112418161122c565b82525050565b600060208201905061125c6000830184611238565b92915050565b60008060408385031215611279576112786110ca565b5b6000611287858286016110f5565b9250506020611298858286016111aa565b9150509250929050565b6112ab816110d4565b82525050565b60006020820190506112c660008301846112a2565b92915050565b600080fd5b6000601f19601f8301169050919050565b7f4e487b7100000000000000000000000000000000000000000000000000000000600052604160045260246000fd5b61131a826112d1565b810181811067ffffffffffffffff82111715611339576113386112e2565b5b80604052505050565b600061134c6110c0565b90506113588282611311565b919050565b600067ffffffffffffffff821115611378576113776112e2565b5b602082029050602081019050919050565b600080fd5b60006113a161139c8461135d565b611342565b905080838252602082019050602084028301858111156113c4576113c3611389565b5b835b818110156113ed57806113d988826111aa565b8452602084019350506020810190506113c6565b5050509392505050565b600082601f83011261140c5761140b6112cc565b5b813561141c84826020860161138e565b91505092915050565b6000806040838503121561143c5761143b6110ca565b5b600083013567ffffffffffffffff81111561145a576114596110cf565b5b611466858286016113f7565b9250506020611477858286016110f5565b9150509250929050565b60006060820190506114966000830186611169565b6114a360208301856112a2565b6114b06040830184611238565b949350505050565b600082825260208201905092915050565b7f6e6f74206f776e65720000000000000000000000000000000000000000000000600082015250565b60006114ff6009836114b8565b915061150a826114c9565b602082019050919050565b6000602082019050818103600083015261152e816114f2565b9050919050565b7f4e487b7100000000000000000000000000000000000000000000000000000000600052601160045260246000fd5b600061156f826110d4565b915061157a836110d4565b925082820390508181111561159257611591611535565b5b92915050565b7f747820646f6573206e6f74206578697374730000000000000000000000000000600082015250565b60006115ce6012836114b8565b91506115d982611598565b602082019050919050565b600060208201905081810360008301526115fd816115c1565b9050919050565b7f4e487b7100000000000000000000000000000000000000000000000000000000600052603260045260246000fd5b7f747820616c726561647920657865637574656400000000000000000000000000600082015250565b60006116696013836114b8565b915061167482611633565b602082019050919050565b600060208201905081810360008301526116988161165c565b9050919050565b7f7478206e6f7420617070726f7665640000000000000000000000000000000000600082015250565b60006116d5600f836114b8565b91506116e08261169f565b602082019050919050565b60006020820190508181036000830152611704816116c8565b9050919050565b7f747820616c726561647920617070726f76656400000000000000000000000000600082015250565b60006117416013836114b8565b915061174c8261170b565b602082019050919050565b6000602082019050818103600083015261177081611734565b9050919050565b7f6f776e6572732072657175697265640000000000000000000000000000000000600082015250565b60006117ad600f836114b8565b91506117b882611777565b602082019050919050565b600060208201905081810360008301526117dc816117a0565b9050919050565b7f696e76616c6964207265717569726564206e756d206f66206f776e6572730000600082015250565b6000611819601e836114b8565b9150611824826117e3565b602082019050919050565b600060208201905081810360008301526118488161180c565b9050919050565b7f696e76616c6964206f776e657200000000000000000000000000000000000000600082015250565b6000611885600d836114b8565b91506118908261184f565b602082019050919050565b600060208201905081810360008301526118b481611878565b9050919050565b7f6f776e6572206973206e6f7420756e6971756500000000000000000000000000600082015250565b60006118f16013836114b8565b91506118fc826118bb565b602082019050919050565b60006020820190508181036000830152611920816118e4565b9050919050565b6000611932826110d4565b91507fffffffffffffffffffffffffffffffffffffffffffffffffffffffffffffffff820361196457611963611535565b5b600182019050919050565b600061197a826110d4565b9150611985836110d4565b925082820190508082111561199d5761199c611535565b5b92915050565b7f617070726f76616c73203c207265717569726564000000000000000000000000600082015250565b60006119d96014836114b8565b91506119e4826119a3565b602082019050919050565b60006020820190508181036000830152611a08816119cc565b9050919050565b600081905092915050565b50565b6000611a2a600083611a0f565b9150611a3582611a1a565b600082019050919050565b6000611a4b82611a1d565b9150819050919050565b7f207478206661696c656400000000000000000000000000000000000000000000600082015250565b6000611a8b600a836114b8565b9150611a9682611a55565b602082019050919050565b60006020820190508181036000830152611aba81611a7e565b905091905056fea2646970667358221220da128e30f4c2f98bc11d9b77f6394ae37ead4fd976dbf32f905ce861948f7f4764736f6c63430008110033",
  "linkReferences": {},
  "deployedLinkReferences": {}
}